:100000000201DC01B6E4FFE4FE0EBE04FC0FBFFFFC
:02001000F622D6
:1000130001A67508FF78097C007D007BFF7A0279D1
:100023006B7E007F0B318911A07B007A0079097FF9
:100033008011487D317FC0119711057D327FC0113A
:1000430097110580EE8B148A158916E4FD11B1AB67
:1000530014AA15A9168D8275830031AFFF600511AF
:10006300AC0D80EB227F3811B17F0C11B17F0611EB
:10007300B17F0101B1C2B1C2B48FA01105D2B4C224
:10008300B422D288D2B8D2A8D2AF22D28AC2BAD2EC
:10009300AAD2AF22E4F51411B1AF0501AC11681176
:1000A30085018ED2002000FD32D2B0117822C2B079
:1000B300117822C20032E709F608DFFA8046E70921
:1000C300F208DFFA803E88828C83E709F0A3DFFA27
:1000D3008032E309F608DFFA8078E309F208DFFAF1
:1000E300807088828C83E309F0A3DFFA80648982BD
:1000F3008A83E0A3F608DFFA805889828A83E0A323
:10010300F208DFFA804C80D280FA80C680D48069FE
:1001130080F28033801080A680EA809A80A880DAFB
:1001230080E280CA803389828A83ECFAE493A3C88D
:10013300C582C8CCC583CCF0A3C8C582C8CCC5834F
:10014300CCDFE9DEE7800D89828A83E493A3F60896
:10015300DFF9ECFAA9F0EDFB2289828A83ECFAE05D
:10016300A3C8C582C8CCC583CCF0A3C8C582C8CCFC
:10017300C583CCDFEADEE880DB89828A83E493A34C
:10018300F208DFF980CC88F0EF60010E4E60C3887F
:10019300F0ED2402B4040050B9F582EB2402B40458
:1001A3000050AF232345822390010973BB010CE563
:1001B3008229F582E5833AF583E0225006E9258218
:1001C300F8E622BBFE06E92582F8E222E58229F55C
:1001D30082E5833AF583E49322787FE4F6D8FD75CC
:1001E3008120020223020015E493A3F8E493A340C1
:1001F30003F68001F208DFF48029E493A3F854079F
:10020300240CC8C333C4540F4420C8834004F45699
:10021300800146F6DFE4800B0102040810204080D1
:10022300900268E47E019360BCA3FF543F30E5096C
:10023300541FFEE493A360010ECF54C025E060A8D1
:1002430040B8E493A3FAE493A3F8E493A3C8C58264
:10025300C8CAC583CAF0A3C8C582C8CAC583CADFD2
:10026300E9DEE780BEC10000534D414C4C204741BD
:030273004D4500F6
:00000001FF
