:100000000200270105C0E0C0D00508E508B40305DB
:10001000750800B290D0D0D0E032D288D2B8D2A841
:10002000D2AF22111A80FE787FE4F6D8FD758108E0
:1000300002006E020023E493A3F8E493A34003F6C6
:100040008001F208DFF48029E493A3F85407240C1C
:10005000C8C333C4540F4420C8834004F4568001FD
:1000600046F6DFE4800B0102040810204080900077
:10007000B3E47E019360BCA3FF543F30E509541FF5
:10008000FEE493A360010ECF54C025E060A840B801
:10009000E493A3FAE493A3F8E493A3C8C582C8CA7F
:1000A000C583CAF0A3C8C582C8CAC583CADFE9DE52
:0700B000E780BE010800001B
:00000001FF
