:1000000002007C8B158A168917AE07E4FDBE010439
:100010007F801162BE02047FC01162AB15AA16A9CF
:10002000178D827583003108FF600511310D80EB5B
:1000300022D2B0C2B1C2B28FA011711171D2B2C2BC
:10004000B2227F3811627F0C11627F0611627F013C
:10005000016211427B007A0079087F011103117857
:1000600080F2C2B0C2B1C2B28FA01171D2B2C2B21C
:1000700022E4FF0FBFFFFC227F010162787FE4F6DC
:10008000D8FD7581170200C3020052E493A3F8E47F
:1000900093A34003F68001F208DFF48029E493A3E0
:1000A000F85407240CC8C333C4540F4420C88340F9
:1000B00004F456800146F6DFE4800B0102040810C8
:1000C000204080900135E47E019360BCA3FF543F43
:1000D00030E509541FFEE493A360010ECF54C02500
:1000E000E060A840B8E493A3FAE493A3F8E493A3F0
:1000F000C8C582C8CAC583CAF0A3C8C582C8CAC554
:1001000083CADFE9DEE780BEBB010CE58229F58208
:10011000E5833AF583E0225006E92582F8E622BB22
:10012000FE06E92582F8E222E58229F582E5833A96
:10013000F583E493220D0848656C6C6F20776F722D
:050140006C64210000C9
:00000001FF
