:1000000002002BC200E4FF20900370010F30900526
:10001000BF0102D200A20022110350FC05081122E8
:1000200080F674092508F8E6F5A022787FE4F6D872
:10003000FD758120020072020018E493A3F8E49396
:10004000A34003F68001F208DFF48029E493A3F8CB
:100050005407240CC8C333C4540F4420C88340043D
:10006000F456800146F6DFE4800B010204081020FC
:1000700040809000B7E47E019360BCA3FF543F3002
:10008000E509541FFEE493A360010ECF54C025E0A0
:1000900060A840B8E493A3FAE493A3F8E493A3C858
:1000A000C582C8CAC583CAF0A3C8C582C8CAC583E9
:1000B000CADFE9DEE780BE09093F065B4F666D7D5A
:0600C0007F6F0108000043
:00000001FF
