:090000000203C201F97E008190A7
:10000B0021AA4641494C210021587B007A00791BDB
:10001B00EFD394634033EF75F0648424307125EF94
:10002B0075F06484AFF0740129F9E43AFAEF75F0D6
:10003B000A8424307125EF75F00A84AFF07401291E
:10004B00F9E43AFAEF24307125EFD39409401CEF11
:10005B0075F00A8424307125EF75F00A84AFF074C3
:10006B000129F9E43AFAEF24307125EFC3940A50D1
:10007B0005EF24307125740129F9E43AFAE471256E
:10008B00FB7A00791B22E4F527F528E51FC39400C2
:10009B004007E51FD3940F4003E4F51F740A251F97
:1000AB00F8E6F51AF580E4F527E4F52831F4EFB519
:1000BB001A090509E4F508F580802B0528E528C306
:1000CB00949640E80527E527C394FF40DC0508E537
:1000DB0008D394034010C20251967BFF7A00790D2E
:1000EB007F80511A80FEAF0911157FC2411AC0E003
:1000FB00C0F0C083C082C0D075D000C000C001C0AA
:10010B0002C003C004C005C006C007300324C202EE
:10011B0051967BFF7A0479C87F80511A51CE7BFFB1
:10012B007A0479D17F80511AAF0911157FC2511A08
:10013B00C203D007D006D005D004D003D002D00123
:10014B00D000D0D0D082D083D0F0D0E032C0E0C08D
:10015B00F0C083C082C0D075D000C000C001C00207
:10016B00C003C004C005C006C007758000D203C21F
:10017B000251967BFF7A0479BF7F80511AAF8B11A6
:10018B00052003FDD007D006D005D004D003D00244
:10019B00D001D000D0D0D082D083D0F0D0E032C00C
:1001AB00E0C0F0C083C082C0D075D000C000C001D9
:1001BB00C002C003C004C005C006C007758C3C75E7
:1001CB008AB00533E533B40A057533001191D007B6
:1001DB00D006D005D004D003D002D001D000D0D0AF
:1001EB00D082D083D0F0D0E0327FFFE4FEFC75905C
:1001FB00F0E59064F06006AE900C75900FE590649E
:10020B000F600BBC0108AD9063050FEE2DFF228B29
:10021B002C8A2D892EE4FD5187AB2CAA2DA92E8D6E
:10022B008275830051F8FF600551780D80EB2251E8
:10023B00B37BFF7A0479DD7F80511A51CE7BFF7A35
:10024B000479E57F80511A51DB8F1F80FA438901B6
:10025B00758C3C758AB0D2A9D2AFD28C227F385123
:10026B00877F0C51877F0651877F014187D2B0C2B0
:10027B00B1C2B48FA051C1D2B4C2B422C2B0C2B108
:10028B00C2B48FA051C1D2B4C2B4222002047F01E8
:10029B0051873002047F02518722438920758DEFED
:1002AB00758BEFC2ABD28E22516851E651EF51588C
:1002BB0051A5AF8B0105E4FFE4FE0EBE04FC0FBF9E
:1002CB00FFF6227F177E987D46DDFEDEFADFF622F3
:1002DB00914E7C007D0F7137AF0522D288D2B8D2F8
:1002EB00A8D2AF22D28AC2BAD2AAD2AF22BB010CF9
:1002FB00E58229F582E5833AF583E0225006E9256C
:10030B0082F8E622BBFE06E92582F8E222E5822985
:10031B00F582E5833AF583E49322BB010689828A51
:10032B0083F0225002F722BBFE01F322C2D5EC3040
:10033B00E709B2D5E4C39DFDE49CFCEE30E715B2B2
:10034B00D5E4C39FFFE49EFE12036DC3E49DFDE461
:10035B009CFC800312036D30D507C3E49FFFE49E22
:10036B00FE22BC000BBE0029EF8DF084FFADF02206
:10037B00E4CCF875F008EF2FFFEE33FEEC33FCEE18
:10038B009DEC984005FCEE9DFE0FD5F0E9E4CEFD0B
:10039B0022EDF8F5F0EE8420D21CFEADF075F008DE
:1003AB00EF2FFFED33FD4007985006D5F0F222C337
:1003BB0098FD0FD5F0EA22787FE4F6D8FD758133EE
:1003CB0002040902023AE493A3F8E493A34003F670
:1003DB008001F208DFF48029E493A3F85407240C7E
:1003EB00C8C333C4540F4420C8834004F45680015F
:1003FB0046F6DFE4800B01020408102040809004D5
:10040B009BE47E019360BCA3FF543F30E509541F6E
:10041B00FEE493A360010ECF54C025E060A840B862
:10042B00E493A3FAE493A3F8E493A3C8C582C8CAE0
:10043B00C583CAF0A3C8C582C8CAC583CADFE9DEB3
:10044B00E780BEAC2FAD30AE31AF327810EC4D4EF5
:10045B004F70047CA57DA5C3EC13FCED13FDEE13CF
:10046B00FEEF13FF5010EC64CCFCED644CFDEE641E
:10047B004EFEEF64CEFFD8DF8C2F8D308E318F3256
:10048B00EE547FFE228E2F8F3074A5F531F532227C
:10049B00011F00010900011A00100AE1B4E2B2D1F8
:1004AB00D4D8E872B1B871D274E478010800C103F2
:1004BB0001330000202020504155534500434F4E3F
:1004CB0054494E55450053636F72653A20202020E6
:1004DB00200057656C636F6D650053636F72653AEF
:0404EB0020202000AD
:00000001FF
