:0900000002049701917E00A16544
:02000B00214290
:1000130001F07B007A007908EFD394634033EF75E6
:10002300F06484243071FAEF75F06484AFF07401E6
:1000330029F9E43AFAEF75F00A84243071FAEF757E
:10004300F00A84AFF0740129F9E43AFAEF2430712D
:10005300FAEFD39409401CEF75F00A84243071FA47
:10006300EF75F00A84AFF0740129F9E43AFAEF244A
:100073003071FAEFC3940A5005EF243071FA74011A
:1000830029F9E43AFAE471FAFB7A00790822C0E02C
:10009300C0F0C083C082C0D075D000C000C001C012
:1000A30002C003C004C005C006C007300224C20159
:1000B30051757BFF7A0579797F8031F951AD7BFFEB
:1000C3007A0579827F8031F9AF1211157FC231F938
:1000D300C202D007D006D005D004D003D002D0018D
:1000E300D000D0D0D082D083D0F0D0E032C0E0C0F6
:1000F300F0C083C082C0D075D000C000C001C00270
:10010300C003C004C005C006C007758000D202C288
:100113000151757BFF7A0579707F8031F9AF8B11BF
:10012300052002FDD007D006D005D004D003D002AD
:10013300D001D000D0D0D082D083D0F0D0E032C074
:10014300E0C0F0C083C082C0D075D000C000C00141
:10015300C002C003C004C005C006C007758C3C754F
:100163008AB00510E510B40A05751000318CD0076C
:10017300D006D005D004D003D002D001D000D0D017
:10018300D082D083D0F0D0E032E4F527F528F529EA
:10019300782A7C00FD7BFF7A05798EFE7F1071A79C
:1001A300E513C394004007E513D3940F4003E4F52C
:1001B30013742A2513F8E6F529F58031D3EFB52911
:1001C300FA0512E4F511F580AF1211157FC221F97A
:1001D3007FFFE4FEFC7590F0E59064F06006AE905E
:1001E3000C75900FE590640F600BBC0108AD906334
:1001F300050FEE2DFF228B3D8A3E893FE4FD5166BC
:10020300AB3DAA3EA93F8D8275830071CDFF60058A
:1002130051570D80EB2251927BFF7A05799E7F80A7
:1002230031F951AD7BFF7A0579A67F8031F951BA57
:100233008F1380FA438901758C3C758AB0D2A9D299
:10024300AFD28C227F3851667F0C51667F06516690
:100253007F014166D2B0C2B1C2B48FA051A0D2B463
:10026300C2B422C2B0C2B1C2B48FA051A0D2B4C230
:10027300B4222001047F0151663001047F025166DC
:1002830022438920758DEF758BEFC2ABD28E22513D
:100293004751C551CE51375184AF8B0105E4FFE47B
:1002A300FE0EBE04FC0FBFFFF6227F177E987D462D
:1002B300DDFEDEFADFF622B1237C007D0F910CAF69
:1002C3000522D288D2B8D2A8D2AF22D28AC2BAD259
:1002D300AAD2AF22E709F608DFFA8046E709F20857
:1002E300DFFA803E88828C83E709F0A3DFFA80324D
:1002F300E309F608DFFA8078E309F208DFFA807091
:1003030088828C83E309F0A3DFFA806489828A837D
:10031300E0A3F608DFFA805889828A83E0A3F20813
:10032300DFFA804C80D280FA80C680D4806980F264
:100333008033801080A680EA809A80A880DA80E2E9
:1003430080CA803389828A83ECFAE493A3C8C58286
:10035300C8CCC583CCF0A3C8C582C8CCC583CCDFC9
:10036300E9DEE7800D89828A83E493A3F608DFF947
:10037300ECFAA9F0EDFB2289828A83ECFAE0A3C8A8
:10038300C582C8CCC583CCF0A3C8C582C8CCC583FD
:10039300CCDFEADEE880DB89828A83E493A3F20878
:1003A300DFF980CC88F0EF60010E4E60C388F0ED7A
:1003B3002402B4040050B9F582EB2402B4040050C3
:1003C300AF232345822390032773BB010CE58229C6
:1003D300F582E5833AF583E0225006E92582F8E6C3
:1003E30022BBFE06E92582F8E222E58229F582E5B1
:1003F300833AF583E49322BB010689828A83F02240
:100403005002F722BBFE01F322C2D5EC30E709B25A
:10041300D5E4C39DFDE49CFCEE30E715B2D5E4C3FF
:100423009FFFE49EFE120442C3E49DFDE49CFC8016
:100433000312044230D507C3E49FFFE49EFE22BCAF
:10044300000BBE0029EF8DF084FFADF022E4CCF861
:1004530075F008EF2FFFEE33FEEC33FCEE9DEC98C6
:100463004005FCEE9DFE0FD5F0E9E4CEFD22EDF84C
:10047300F5F0EE8420D21CFEADF075F008EF2FFFEF
:10048300ED33FD4007985006D5F0F222C398FD0FD7
:10049300D5F0EA22787FE4F6D8FD75813F0204DEC9
:1004A300020219E493A3F8E493A34003F68001F254
:1004B30008DFF48029E493A3F85407240CC8C3335A
:1004C300C4540F4420C8834004F456800146F6DF29
:1004D300E4800B01020408102040809005B0E47E04
:1004E300019360BCA3FF543F30E509541FFEE4931E
:1004F300A360010ECF54C025E060A840B8E493A3E5
:10050300FAE493A3F8E493A3C8C582C8CAC583CA0F
:10051300F0A3C8C582C8CAC583CADFE9DEE780BEC7
:10052300AC0CAD0DAE0EAF0F7810EC4D4E4F70040A
:100533007CA57DA5C3EC13FCED13FDEE13FEEF13B9
:10054300FF5010EC64CCFCED644CFDEE644EFEEF0A
:1005530064CEFFD8DF8C0C8D0D8E0E8F0FEE547F83
:10056300FE228E0C8F0D74A5F50EF50F2220202090
:10057300504155534500434F4E54494E5545005342
:10058300636F72653A202020202000E1B4E2B2D1EB
:10059300D4D8E872B1B871D274E47857656C636FDC
:1005A3006D650053636F72653A20202000011300CC
:0C05B300011200C1020110000111000043
:00000001FF
