:090000000204CD210E7E00A19B3B
:02000B0021BF13
:10001300216DE4F527F528F529782A7C00FD7BFF7F
:100023007A0579CAFE7F1071DDE513C3940040079A
:10003300E513D3940F4003E4F513742A2513F8E66C
:10004300F529F580E4F527E4F5285109EFB52909E9
:100053000512E4F511F580802E0528E528C3949652
:1000630040E80527E527C394FF40DC0511E511D3DC
:1000730094034013C20251ABE4F5807BFF7A057908
:10008300C47F80512F80FEAF1211927FC2412F7B1C
:10009300007A007908EFD394634033EF75F06484FA
:1000A30024309130EF75F06484AFF0740129F9E4E2
:1000B3003AFAEF75F00A8424309130EF75F00A8430
:1000C300AFF0740129F9E43AFAEF24309130EFD319
:1000D3009409401CEF75F00A8424309130EF75F0D9
:1000E3000A84AFF0740129F9E43AFAEF243091302D
:1000F300EFC3940A5005EF24309130740129F9E4D9
:100103003AFAE49130FB7A00790822C0E0C0F0C0EB
:1001130083C082C0D075D000C000C001C002C0033C
:10012300C004C005C006C007300324C20251AB7B24
:10013300FF7A0579AF7F80512F51E37BFF7A0579F1
:10014300B87F80512FAF1211927FC2512FC203D0BB
:1001530007D006D005D004D003D002D001D000D000
:10016300D0D082D083D0F0D0E032C0E0C0F0C083E2
:10017300C082C0D075D000C000C001C002C003C09F
:1001830004C005C006C007758000D203C20251AB8C
:100193007BFF7A0579A67F80512FAF8B1105200352
:1001A300FDD007D006D005D004D003D002D001D0B3
:1001B30000D0D0D082D083D0F0D0E032C0E0C0F005
:1001C300C083C082C0D075D000C000C001C002C0CF
:1001D30003C004C005C006C007758C3C758AB00512
:1001E30010E510B40A057510001115D007D006D01C
:1001F30005D004D003D002D001D000D0D0D082D01B
:1002030083D0F0D0E0327FFFE4FEFC7590F0E59000
:1002130064F06006AE900C75900FE590640F600B70
:10022300BC0108AD9063050FEE2DFF228B3D8A3E86
:10023300893FE4FD519CAB3DAA3EA93F8D82758366
:10024300009103FF6005518D0D80EB2251C87BFFA8
:100253007A0579DA7F80512F51E37BFF7A0579E2C2
:100263007F80512F51F08F1380FA438901758C3CA5
:10027300758AB0D2A9D2AFD28C227F38519C7F0C21
:10028300519C7F06519C7F01419CD2B0C2B1C2B444
:100293008FA051D6D2B4C2B422C2B0C2B1C2B48FFD
:1002A300A051D6D2B4C2B4222002047F01519C30A3
:1002B30002047F02519C22438920758DEF758BEFD9
:1002C300C2ABD28E22517D51FB7104516D51BAAF35
:1002D3008B0105E4FFE4FE0EBE04FC0FBFFFF62214
:1002E3007F177E987D46DDFEDEFADFF622B1597C6C
:1002F300007D0F9142AF0522D288D2B8D2A8D2AFE7
:1003030022D28AC2BAD2AAD2AF22E709F608DFFA0A
:100313008046E709F208DFFA803E88828C83E7098A
:10032300F0A3DFFA8032E309F608DFFA8078E30905
:10033300F208DFFA807088828C83E309F0A3DFFA86
:10034300806489828A83E0A3F608DFFA8058898271
:100353008A83E0A3F208DFFA804C80D280FA80C659
:1003630080D4806980F28033801080A680EA809AEE
:1003730080A880DA80E280CA803389828A83ECFA9B
:10038300E493A3C8C582C8CCC583CCF0A3C8C582F7
:10039300C8CCC583CCDFE9DEE7800D89828A83E49C
:1003A30093A3F608DFF9ECFAA9F0EDFB2289828A20
:1003B30083ECFAE0A3C8C582C8CCC583CCF0A3C83C
:1003C300C582C8CCC583CCDFEADEE880DB89828ABC
:1003D30083E493A3F208DFF980CC88F0EF60010E89
:1003E3004E60C388F0ED2402B4040050B9F582EBEB
:1003F3002402B4040050AF232345822390035D738A
:10040300BB010CE58229F582E5833AF583E02250AE
:1004130006E92582F8E622BBFE06E92582F8E222F8
:10042300E58229F582E5833AF583E49322BB01064D
:1004330089828A83F0225002F722BBFE01F322C293
:10044300D5EC30E709B2D5E4C39DFDE49CFCEE3066
:10045300E715B2D5E4C39FFFE49EFE120478C3E41C
:100463009DFDE49CFC800312047830D507C3E49F10
:10047300FFE49EFE22BC000BBE0029EF8DF084FF3B
:10048300ADF022E4CCF875F008EF2FFFEE33FEEC6D
:1004930033FCEE9DEC984005FCEE9DFE0FD5F0E994
:1004A300E4CEFD22EDF8F5F0EE8420D21CFEADF093
:1004B30075F008EF2FFFED33FD4007985006D5F098
:1004C300F222C398FD0FD5F0EA22787FE4F6D8FD37
:1004D30075813F02051402024FE493A3F8E493A34A
:1004E3004003F68001F208DFF48029E493A3F85473
:1004F30007240CC8C333C4540F4420C8834004F4F6
:1005030056800146F6DFE4800B0102040810204008
:10051300809005ECE47E019360BCA3FF543F30E57B
:1005230009541FFEE493A360010ECF54C025E0607D
:10053300A840B8E493A3FAE493A3F8E493A3C8C54B
:1005430082C8CAC583CAF0A3C8C582C8CAC583CA3C
:10055300DFE9DEE780BEAC0CAD0DAE0EAF0F781059
:10056300EC4D4E4F70047CA57DA5C3EC13FCED133D
:10057300FDEE13FEEF13FF5010EC64CCFCED644C66
:10058300FDEE644EFEEF64CEFFD8DF8C0C8D0D8E36
:100593000E8F0FEE547FFE228E0C8F0D74A5F50E79
:1005A300F50F22202020504155534500434F4E5410
:1005B300494E55450053636F72653A202020202031
:1005C300004641494C2100E1B4E2B2D1D4D8E872EB
:1005D300B1B871D274E47857656C636F6D6500537D
:1005E300636F72653A20202000011300011200C1DD
:0805F3000301100001110000DA
:00000001FF
