:100000000200377F0F1131902103E509F0902102A2
:10001000E50FF01123A3E509F0902102E510F0119E
:100020002380E47FA77EAB7D10DDFEDEFADFF600E5
:1000300022902100EFF022787FE4F6D8FD75811040
:1000400002007E020003E493A3F8E493A34003F6C6
:100050008001F208DFF48029E493A3F85407240C0C
:10006000C8C333C4540F4420C8834004F4568001ED
:1000700046F6DFE4800B0102040810204080900067
:10008000C3E47E019360BCA3FF543F30E509541FD5
:10009000FEE493A360010ECF54C025E060A840B8F1
:1000A000E493A3FAE493A3F8E493A3C8C582C8CA6F
:1000B000C583CAF0A3C8C582C8CAC583CADFE9DE42
:1000C000E780BE020F8C890708FFDFEFF7FBFDFE1C
:0100D000002F
:00000001FF
