:100000000200A6E517D394644008E51775F06484F0
:10001000F508E51775F00A8485F009C3E517950919
:10002000FFE49400FE7C007D0A3132EF75F00A8413
:10003000AFF0EFC454F02509F50922E4FFFDFC748C
:100040000D2FF8E62DFDE43CFC0FBF0AF2C3ED9541
:100050000CFFEC9400FEC3EF950BFFEE9400FE7CCA
:10006000007D0831878F0A22E4FF850D0C0F740D87
:100070002FF8E6FED3950C40028E0C0FBF0AEF223C
:10008000E4FF850D0B0F740D2FF8E6FEC3950B50A2
:10009000028E0B0FBF0AEF2211681180E50C250BB1
:1000A000F517113B0103787FE4F6D8FD758117023F
:1000B00000ED020098E493A3F8E493A34003F680D4
:1000C00001F208DFF48029E493A3F85407240CC854
:1000D000C333C4540F4420C8834004F456800146FF
:1000E000F6DFE4800B01020408102040809001BD7F
:1000F000E47E019360BCA3FF543F30E509541FFE2A
:10010000E493A360010ECF54C025E060A840B8E49A
:1001100093A3FAE493A3F8E493A3C8C582C8CAC51D
:1001200083CAF0A3C8C582C8CAC583CADFE9DEE7AF
:1001300080BEBC000BBE0029EF8DF084FFADF02225
:10014000E4CCF875F008EF2FFFEE33FEEC33FCEE55
:100150009DEC984005FCEE9DFE0FD5F0E9E4CEFD48
:1001600022EDF8F5F0EE8420D21CFEADF075F0081B
:10017000EF2FFFED33FD4007985006D5F0F222C374
:1001800098FD0FD5F0EA22C2D5EC30E709B2D5E4EC
:10019000C39DFDE49CFCEE30E715B2D5E4C39FFFA0
:1001A000E49EFE120132C3E49DFDE49CFC80031238
:1001B000013230D507C3E49FFFE49EFE220A0D10F2
:1001C00035A3F72D9DE80487D0010C00010B000139
:0C01D0001700010800010900010A0000EE
:00000001FF
