:1000000002001E1201567590FF80FE0200AA758C38
:0A0010003C758AB0D28C22C28C220B
:10001B000200F7787FE4F6D8FD75810702006502D0
:10002B000003E493A3F8E493A34003F68001F208E2
:10003B00DFF48029E493A3F85407240CC8C333C41A
:10004B00540F4420C8834004F456800146F6DFE485
:10005B00800B010204081020408090015CE47E01BB
:10006B009360BCA3FF543F30E509541FFEE493A3F8
:10007B0060010ECF54C025E060A840B8E493A3FA0A
:10008B00E493A3F8E493A3C8C582C8CAC583CAF096
:10009B00A3C8C582C8CAC583CADFE9DEE780BEC074
:1000AB00E0C0F0C083C082C0D075D000C000C001DA
:1000BB00C002C003C004C005C006C007900000E02A
:1000CB00FFF590EF25E0F07005120017800312008A
:1000DB000ED007D006D005D004D003D002D001D06B
:1000EB0000D0D0D082D083D0F0D0E032C0E0C0F0CE
:1000FB00C083C082C0D075D000C000C001C002C098
:10010B0003C004C005C006C00712000ED007D006FE
:10011B00D005D004D003D002D001D000D0D0D082F3
:10012B00D083D0F0D0E032438901758C3C758AB016
:10013B00D2A9D2AFD2B9C28C22438960758DFD751D
:10014B008BBDD2ABD2AFC2B9D28C2212013202011B
:0C015B00444100000100C28C22D28C2222
:00000001FF
