:100000000200E211167590FF80FE22011D758C3CE6
:10001000758AB0D28C2211B711C9220163C0E0C029
:10002000F0C083C082C0D075D000C000C001C00243
:10003000C003C004C005C006C007110D0509E509CD
:10004000B41405750900119DD007D006D005D00461
:10005000D003D002D001D000D0D0D082D083D0F055
:10006000D0E032C0E0C0F0C083C082C0D075D00004
:10007000C000C001C002C003C004C005C006C00764
:10008000110DD007D006D005D004D003D002D00186
:10009000D000D0D0D082D083D0F0D0E0328508908C
:1000A000E508B4FF087508FE11DF11DB22E508251D
:1000B000E0F50843080122438901758C3C758AB03C
:1000C000D2A9D2AFD2B9C28C22438960758DFE7598
:1000D0008BFED2ABD2AFC2BBD28E22758BFE22C2B8
:1000E0008C22787FE4F6D8FD75810902012902008F
:1000F00003E493A3F8E493A34003F68001F208DF3E
:10010000F48029E493A3F85407240CC8C333C454DF
:100110000F4420C8834004F456800146F6DFE48093
:100120000B010204081020408090016EE47E0193D0
:1001300060BCA3FF543F30E509541FFEE493A36065
:10014000010ECF54C025E060A840B8E493A3FAE4C0
:1001500093A3F8E493A3C8C582C8CAC583CAF0A311
:10016000C8C582C8CAC583CADFE9DEE780BE010808
:05017000FE0109000082
:00000001FF
