:1000000002000E1200CB1200B380FB02009A787F30
:10001000E4F6D8FD758107020055020003E493A3BE
:10002000F8E493A34003F68001F208DFF48029E4AA
:1000300093A3F85407240CC8C333C4540F4420C8F6
:10004000834004F456800146F6DFE4800B0102048D
:1000500008102040809000DBE47E019360BCA3FF89
:10006000543F30E509541FFEE493A360010ECF54C2
:10007000C025E060A840B8E493A3FAE493A3F8E4B1
:1000800093A3C8C582C8CAC583CAF0A3C8C582C81D
:10009000CAC583CADFE9DEE780BEC0E0C083C08294
:1000A000758C3C758AB0900000E004F0D082D0835B
:1000B000D0E032900000E075F00A84AFF074012FB8
:1000C000F582E43400F583E0F5A022438901758CC4
:1000D0003C758AB0D2A9D2AFD28C224A00013F0629
:0900E0005B4F666D7D077F6F0028
:00000001FF
