:090000000200481128113880FCAF
:10000B00010DC0E0C0D0758C3C758AB00508E508C1
:10001B00B414050509750800D0D0D0E0324389012E
:10002B00758C3C758AB0D2A9D2AFD28C22E50975FA
:10003B00F00A84AFF0740A2FF8E6F5A022787FE47B
:10004B00F6D8FD75811302008F020003E493A3F829
:10005B00E493A34003F68001F208DFF48029E493D4
:10006B00A3F85407240CC8C333C4540F4420C883CB
:10007B004004F456800146F6DFE4800B01020408CD
:10008B00102040809000D4E47E019360BCA3FF5409
:10009B003F30E509541FFEE493A360010ECF54C01B
:1000AB0025E060A840B8E493A3FAE493A3F8E493A3
:1000BB00A3C8C582C8CAC583CAF0A3C8C582C8CAAB
:1000CB00C583CADFE9DEE780BE0A0A3F065B4F66DF
:0600DB006D7D077F6F0040
:00000001FF
