:100000000200230120111974092508F8E6F5A0E57E
:1000100008B40AF3E4F50880EED288D2A8D2AF2261
:10002000050832787FE4F6D8FD75811102006A0276
:100030000005E493A3F8E493A34003F68001F208DB
:10004000DFF48029E493A3F85407240CC8C333C415
:10005000540F4420C8834004F456800146F6DFE480
:10006000800B01020408102040809000AFE47E0164
:100070009360BCA3FF543F30E509541FFEE493A3F3
:1000800060010ECF54C025E060A840B8E493A3FA05
:10009000E493A3F8E493A3C8C582C8CAC583CAF091
:1000A000A3C8C582C8CAC583CADFE9DEE780BE0926
:0E00B000093F065B4F666D7D7F6F0108000003
:00000001FF
