:1000000002008A751F1775202EE51F2520F521E4B3
:10001000F5227F0F1184E51F75F00A84F5229021E7
:1000200003E509116CE51F75F00A8485F022E50AE5
:1000300012006BE52075F00A84F522E50B12006BC7
:10004000E52075F00A8485F022A3E50C116CE5210A
:1000500075F00A84F522A3E50D116CE52175F00A0F
:100060008485F022A3E50E116C80ABA3F0740F25FC
:1000700022F8E6902102F07F017E8E7D02DDFEDE19
:10008000FADFF622902100EFF022787FE4F6D8FD27
:100090007581220200D1020003E493A3F8E493A344
:1000A0004003F68001F208DFF48029E493A3F854BA
:1000B00007240CC8C333C4540F4420C8834004F43D
:1000C00056800146F6DFE4800B0102040810204050
:1000D00080900116E47E019360BCA3FF543F30E59D
:1000E00009541FFEE493A360010ECF54C025E060C5
:1000F000A840B8E493A3FAE493A3F8E493A3C8C593
:1001000082C8CAC583CAF0A3C8C582C8CAC583CA83
:10011000DFE9DEE780BE100FC0F9A4B0999282F843
:1001200080908883C6A1868E0708FFDFEFF7FBFD6E
:02013000FE00CF
:00000001FF
